:020000040800F2
:10000000600600206D0100081B04000813040008AE
:1000100017040008690200088509000800000000B4
:10002000000000000000000000000000650500085E
:100030006D0200080000000021050008810600088C
:100040008701000887010008870100088701000870
:100050008701000887010008870100088701000860
:100060008701000887010008870100088701000850
:100070008701000887010008870100088701000840
:100080008701000887010008870100088701000830
:100090008701000887010008870100088701000820
:1000A0008701000887010008870100088701000810
:1000B0008701000887010008870100088701000800
:1000C00087010008870100088701000887010008F0
:1000D00087010008870100088701000887010008E0
:1000E00087010008870100088701000800F002F876
:1000F00000F02CF80AA090E8000C82448344AAF196
:100100000107DA4501D100F021F8AFF2090EBAE893
:100110000F0013F0010F18BFFB1A43F0010318473B
:10012000C4080000D4080000002300240025002695
:10013000103A28BF78C1FBD8520728BF30C148BF4A
:100140000B6070471FB51FBD10B510BD00F031F832
:100150001146FFF7F7FF00F017FC00F04FF803B46B
:10016000FFF7F2FF03BC00F057F800000948804792
:1001700009480047FEE7FEE7FEE7FEE7FEE7FEE789
:10018000FEE7FEE7FEE7FEE704480549054A064BA1
:100190007047000085060008ED00000860000020A0
:1001A0006006002060020020600200207047704757
:1001B0007047754600F02CF8AE4605006946534678
:1001C00020F00700854618B020B5FFF7DDFFBDE839
:1001D00020404FF000064FF000074FF000084FF0AE
:1001E000000B21F00701AC46ACE8C009ACE8C0093F
:1001F000ACE8C009ACE8C0098D46704710B50446AC
:10020000AFF300802046BDE81040FFF7A8BF000014
:10021000004870470000002001491820ABBEFEE7EF
:10022000260002007047000070B505460C462846BF
:1002300000F062F9204600F069F94FF48071084837
:1002400000F0E3F84FF40071054800F0E0F81021E9
:10025000044800F0DCF82021014800F0D6F870BD19
:10026000000C01400008014000BFFEE7704700B5E8
:10027000034603E04FF47A7000F005F8181EA3F16E
:100280000103F7D100BD00EBC001C9004FF0E0222F
:100290005161002191610521116100BF4FF0E02102
:1002A000096901F480310029F8D004214FF0E022DF
:1002B0001161704770B505460C46284600F01CF9E0
:1002C000204600F023F94FF48071084800F09FF8B1
:1002D0004FF40071054800F098F81021044800F030
:1002E00094F82021014800F092F870BD000C014004
:1002F000000801402DE9F0410246002500260020BB
:1003000000230024002791F803C00CF00F0591F89A
:1003100003C00CF0100CBCF1000F03D091F802C028
:100320004CEA050591F800C0BCF1000F31D014680B
:1003300000202BE04FF0010C0CFA00F3B1F800C0E4
:100340000CEA03069E4220D183004FF00F0C0CFAFA
:1003500003F7BC4305FA03FC4CEA040491F803C01C
:10036000BCF1280F06D14FF0010C0CFA00FCC2F8CA
:1003700014C00AE091F803C0BCF1480F05D14FF05A
:10038000010C0CFA00FCC2F810C0401C0828D1D3A4
:100390001460B1F800C0BCF1FF0F34DD54680020D8
:1003A0002EE000F1080C4FF0010808FA0CF3B1F848
:1003B00000C00CEA03069E4221D183004FF00F0CCF
:1003C0000CFA03F7BC4305FA03FC4CEA040491F869
:1003D00003C0BCF1280F05D100F1080C08FA0CF895
:1003E000C2F8148091F803C0BCF1480F07D100F1A6
:1003F000080C4FF0010808FA0CF8C2F81080401CF5
:100400000828CED35460BDE8F08141617047016196
:10041000704700BFFEE700BFFEE7704700B58BB036
:100420000121042000F07EF80121042000F08AF868
:100430000121082000F086F818208DF82B00C0203C
:10044000ADF8280003208DF82A000AA92748FFF7F5
:1004500051FF274800F052F90020ADF82200ADF816
:100460001E006320ADF820004720ADF81C000020DE
:100470008DF8240007A91E4800F0F2F903A800F047
:10048000E1F96020ADF80C000020ADF81400012067
:10049000ADF80E003220ADF8120003A9144800F0A8
:1004A00033F903A9124800F07BF90121104800F04C
:1004B00019F94FF44870ADF8080010208DF80B00C2
:1004C00003208DF80A0002A90848FFF713FF102047
:1004D0008DF80700ADF8040003208DF8060001A98F
:1004E0000448FFF707FF0BB000BD0000000C0140FF
:1004F000000800400008014010B5044621460248AB
:1005000000F0ACF910BD00000008004010B5044632
:100510002146024800F0A0F910BD0000000800408C
:100520007047000029B1064AD2690243044BDA61E0
:1005300004E0034AD2698243014BDA61704700004C
:100540000010024029B1064A92690243044B9A61A5
:1005500004E0034A92698243014B9A6170470000AC
:1005600000100240704710B500F002F810BD000006
:100570000CB50020019000903348006840F48030B2
:100580003149086000BF3048006800F40030009036
:100590000198401C0190009818B90198B0F5A06F1F
:1005A000F1D12948006800F4003010B1012000901A
:1005B00001E0002000900098012843D12348006802
:1005C00040F01000214908600846006820F0030050
:1005D00008600846006840F0020008601A48406859
:1005E000194948600846406848600846406840F439
:1005F000806048600846406820F47C1048600846E7
:10060000406840F4E81048600846006840F0807098
:10061000086000BF0C48006800F000700028F9D0A6
:100620000948406820F003000749486008464068D0
:1006300040F00200486000BF0348406800F00C0032
:100640000828F9D10CBD0000001002400020024033
:1006500010B54FF480710848FFF7D7FE4FF40071D2
:100660000548FFF7D2FE10210448FFF7CEFE2021F7
:100670000148FFF7CAFE10BD000C01400008014010
:100680007047000010B51348006840F001001149A0
:10069000086008464068104908400E49486008460E
:1006A00000680E4908400B4908600846006820F4BD
:1006B000802008600846406820F4FE0048604FF43F
:1006C0001F008860FFF74FFF4FF00060044908608B
:1006D00010BD0000001002400000FFF8FFFFF6FE12
:1006E00008ED00E021B1028842F00102028004E03E
:1006F00002884FF6FE731A400280704701894FF658
:10070000F87211400181704770B500240022002367
:10071000058C4FF6FE7635400584028C8388048B69
:100720004FF68F752C40B51E2C400D882C43751E3E
:100730002A400D892A434D882A43144DA8420BD0E4
:10074000134DA84208D0134DA84205D0124DA8421F
:1007500002D0124DA84213D14FF6F7752A404D89A9
:100760002A434FF6FB752A408D882A434FF6FF65D2
:100770002B404FF6FF552B408D892B43CD892B43C2
:1007800083800483CD888586028470BD002C01405F
:100790000034014000400140004401400048014055
:1007A00070B5002400220023058C4FF6EF7635400B
:1007B0000584028C8388048B48F6FF752C404FF625
:1007C000FF452C400D884FF6FF7606EA05252C43A1
:1007D0004FF6DF752A400D8906EA05152A434D8834
:1007E00006EA05152A43154DA84202D0144DA84229
:1007F0001DD14FF67F752A404D894FF6FF7606EAE8
:1008000005152A434FF6BF752A408D8806EA05155F
:100810002A434FF6FF352B404FF2FF752B408D8951
:1008200006EA85052B43CD8906EA85052B4383809F
:100830000483CD880587028470BD0000002C014030
:10084000003401400021018041808180C18001810C
:1008500041818181C18170478186704701877047DE
:10086000002202881D4B98420ED01D4B98420BD09F
:10087000B0F1804F08D01B4B984205D01A4B9842DC
:1008800002D01A4B984204D14FF68F731A404B880E
:100890001A43174B984207D0164B984204D04FF694
:1008A000FF431A40CB881A4302808B8883850B88CC
:1008B00003850A4B98420BD0094B984208D00E4B47
:1008C000984205D00D4B984202D00D4B984201D171
:1008D0000B7A03860123838270470000002C0140BD
:1008E000003401400004004000080040000C0040BB
:1008F000001000400014004000400140004401404E
:100900000048014070B505460C462846FFF7F4FD47
:100910002046FFF7FBFD4FF480710848FFF775FD97
:100920004FF400710548FFF772FD10210448FFF7EE
:100930006CFD20210148FFF76AFD70BD000C0140ED
:100940000008014070B505460C462846FFF7D4FD67
:100950002046FFF7DBFD4FF480710848FFF757FD95
:100960004FF400710548FFF750FD10210448FFF7D0
:100970004EFD20210148FFF748FD70BD000C0140ED
:100980000008014000BFFEE7FFF748FD40F6B83021
:10099000FFF76DFC25E050210846FFF78BFC4FF474
:1009A000FA60FFF764FC50210846FFF73DFC4FF466
:1009B000FA60FFF75CFC50210846FFF7A3FF4FF4F5
:1009C000FA60FFF754FC50210846FFF7BBFF4FF4D5
:1009D000FA60FFF74CFCFFF73BFE4FF4FA60FFF7BD
:1009E00046FCD8E7F409000800000020600600007B
:0409F00028010008D2
:04000005080000ED02
:00000001FF
