:020000040800F2
:1000000078060020890100089505000819050008F8
:100010007D05000885020008B50E000800000000FC
:10002000000000000000000000000000850800083B
:10003000890200080000000041080008B50A000815
:10004000A3010008A3010008A3010008A301000800
:10005000A3010008A3010008A3010008A3010008F0
:10006000A3010008A3010008A3010008A3010008E0
:10007000A3010008A3010008A3010008A3010008D0
:10008000A3010008A3010008A3010008A3010008C0
:10009000A3010008A3010008A3010008A3010008B0
:1000A000A3010008A3010008A3010008A3010008A0
:1000B000190B0008A3010008A3010008A301000810
:1000C000A3010008A3010008A3010008A301000880
:1000D000A3010008A3010008A3010008A301000870
:1000E000A3010008A3010008A301000800F002F822
:1000F00000F03AF80AA090E8000C82448344AAF188
:100100000107DA4501D100F02FF8AFF2090EBAE885
:100110000F0013F0010F18BFFB1A43F0010318473B
:100120009C180000BC180000103A24BF78C878C1A1
:10013000FAD8520724BF30C830C144BF04680C60ED
:10014000704700000023002400250026103A28BF35
:1001500078C1FBD8520728BF30C148BF0B60704739
:100160001FB51FBD10B510BD00F031F81146FFF7E7
:10017000F7FF00F0A1FE00F04FF803B4FFF7F2FF25
:1001800003BC00F057F800000948804709480047C1
:10019000FEE7FEE7FEE7FEE7FEE7FEE7FEE7FEE737
:1001A000FEE7FEE704480549054A064B7047000094
:1001B000B90A0008ED000008780000207806002049
:1001C000780200207802002070477047704775461B
:1001D00000F02CF8AE4605006946534620F00700B3
:1001E000854618B020B5FFF7DDFFBDE820404FF091
:1001F00000064FF000074FF000084FF0000B21F011
:100200000701AC46ACE8C009ACE8C009ACE8C009DD
:10021000ACE8C0098D46704710B50446AFF30080C6
:100220002046BDE81040FFF7A8BF00000048704717
:100230001800002001491820ABBEFEE7260002008E
:100240007047000070B505460C46284600F0E4FAF9
:10025000204600F0EBFA4FF48071084800F0F6F801
:100260004FF40071054800F0F3F81021044800F045
:10027000EFF82021014800F0E9F870BD000C0140C2
:100280000008014000BFFEE7704700B5034603E0E9
:100290004FF47A7000F005F8181EA3F10103F7D1AE
:1002A00000BD00EBC001C9004FF0E0225161002108
:1002B00091610521116100BF4FF0E021096901F44E
:1002C00080310029F8D004214FF0E02211617047FD
:1002D00010B504462146024800F016FD10BD00008E
:1002E0000004004070B505460C46284600F094FA1C
:1002F000204600F09BFA4FF48071084800F0A8F8FF
:100300004FF40071054800F0A1F81021044800F0F6
:100310009DF82021014800F09BF870BD000C0140C1
:10032000000801402DE9F04102460025002600208A
:1003300000230024002791F803C00CF00F0591F86A
:1003400003C00CF0100CBCF1000F03D091F802C0F8
:100350004CEA050591F800C0BCF1000F31D01468DB
:1003600000202BE04FF0010C0CFA00F3B1F800C0B4
:100370000CEA03069E4220D183004FF00F0C0CFACA
:1003800003F7BC4305FA03FC4CEA040491F803C0EC
:10039000BCF1280F06D14FF0010C0CFA00FCC2F89A
:1003A00014C00AE091F803C0BCF1480F05D14FF02A
:1003B000010C0CFA00FCC2F810C0401C0828D1D374
:1003C0001460B1F800C0BCF1FF0F34DD54680020A8
:1003D0002EE000F1080C4FF0010808FA0CF3B1F818
:1003E00000C00CEA03069E4221D183004FF00F0C9F
:1003F0000CFA03F7BC4305FA03FC4CEA040491F839
:1004000003C0BCF1280F05D100F1080C08FA0CF864
:10041000C2F8148091F803C0BCF1480F07D100F175
:10042000080C4FF0010808FA0CF8C2F81080401CC4
:100430000828CED35460BDE8F081024600209368BE
:100440000B400BB1012000E0002070474161704774
:10045000016170472DE9F05F00F04CF86420FFF770
:1004600014FF0D48008800F0FEFE80460B4A0C4B3E
:1004700000F00CFF064600220A4B00F007FF04467E
:1004800000224FF0804300F069FD824600F0BEFE7E
:1004900080B2BDE8F09F0000140000202D431CEB4B
:1004A000E2361A3F009AE04008B50121042000F02E
:1004B000D9F910208DF803000120ADF800000320C9
:1004C0008DF8020069460A48FFF72CFF28208DF8B6
:1004D00003000220ADF8000003208DF802006946F9
:1004E0000348FFF71FFF01210148FFF7AFFF08BDD9
:1004F0000008014010B501210648FFF7A9FF2D2093
:10050000FFF7CFFE01210348FFF7A0FF00F050FCEA
:1005100010BD00000008014000BFFEE710B500F06C
:10052000B1FAC820FFF7B1FE0F4800F0ADF94FF463
:100530009670FFF7AAFEFFF78DFF0C490860C820F0
:10054000FFF7A3FE0A4800F09FF94FF49670FFF7FB
:100550009CFEFFF77FFF07490860C820FFF795FE64
:10056000054800F091F910BD000020430000002074
:100570000000A041040000200000BE4200BFFEE7D2
:1005800010B504462146024800F0BCFB10BD000037
:10059000000400407047000070B5002100230F22C6
:1005A000C47804B3154C246804F4E064C4F5E06432
:1005B000210AC1F10403CA40447804FA03F18478A3
:1005C0001440214309010E4C0678A155047804F02B
:1005D0001F050124AC4005786D11AD0005F1E02543
:1005E000C5F8004109E0047804F01F050124AC407F
:1005F000044D0678761145F8264070BD0CED00E0FC
:1006000000E400E080E100E002490143024A116099
:10061000704700000000FA050CED00E010B500F096
:100620006DFCFFF717FF4049086008460068232863
:1006300073DC3E4801883E480088FFF703FE322005
:10064000FFF723FEFFF76AFF3A480068192810DD1C
:10065000384800683849096888420ADB334801880D
:100660003348008800F0E6FB4FF4FA70FFF70DFE08
:1006700059E031480068192810DD2F4800682D49DD
:10068000096888420ADB294801882948008800F067
:10069000F1FB4FF4FA70FFF7F8FD44E025480068DD
:1006A000192840DC2448006819283CDC0AE01F486F
:1006B00001881F480088FFF7C5FD9620FFF7E5FD7C
:1006C000FFF72CFF1B480068192803DC1A48006854
:1006D0001928ECDD174800681749096888420ADBC9
:1006E000124801881248008800F0A4FB4FF4FA7009
:1006F000FFF7CBFD17E0104800680E4909688842F3
:1007000011DD0A4801880A48008800F0B3FB4FF465
:10071000FA70FFF7BAFD06E0FFE7044801880448D5
:100720000088FFF7DFFD10BD080000201200002048
:1007300010000020000000200400002000B58BB055
:100740000121042000F07EF80121042000F08AF845
:100750000121082000F086F818208DF82B00C02019
:10076000ADF8280003208DF82A000AA92748FFF7D2
:10077000D9FD274800F018FA0020ADF82200ADF8A6
:100780001E006320ADF820004720ADF81C000020BB
:100790008DF8240007A91E4800F0B8FA03A800F05D
:1007A000A7FA6020ADF80C000020ADF8140001207D
:1007B000ADF80E003220ADF8120003A9144800F085
:1007C000F9F903A9124800F041FA0121104800F09C
:1007D000C5F94FF44870ADF8080010208DF80B00F3
:1007E00003208DF80A0002A90848FFF79BFD10209E
:1007F0008DF80700ADF8040003208DF8060001A96C
:100800000448FFF78FFD0BB000BD0000000C014055
:10081000000800400008014010B504462146024887
:1008200000F072FA10BD00000008004010B5044648
:100830002146024800F066FA10BD000000080040A2
:100840007047000029B1064AD2690243044BDA61BD
:1008500004E0034AD2698243014BDA617047000029
:100860000010024029B1064A92690243044B9A6182
:1008700004E0034A92698243014B9A617047000089
:1008800000100240704700002DE9F04104460A497B
:10089000204600F05BFE8046084900F04DFF074609
:1008A000074900F0F1FD064600F012FF85B2284628
:1008B000FFF70EFDBDE8F081000034430000FA446C
:1008C0000000FA4300B589B001210220FFF7BAFF0A
:1008D00001210420FFF7C6FF18208DF82300C02057
:1008E000ADF8200003208DF8220008A91A48FFF770
:1008F00019FD1A4800F058F90020ADF81A00ADF8BB
:10090000160044F61F60ADF818004720ADF814003B
:1009100000208DF81C0005A9104800F0F7F901A887
:1009200000F0E6F96020ADF804000020ADF80C00FE
:100930000120ADF806000020ADF80A0001A9074823
:1009400000F038F901A9054800F080F901210348B9
:1009500000F004F909B000BD0008014000040040A7
:100960002DE9F04104460A49204600F0EFFD80469B
:10097000084900F0E1FE0746074900F085FD0646FC
:1009800000F0A6FE85B22846FFF7FAFDBDE8F0812B
:10099000000034430000FA440000FA4310B500F0B0
:1009A00001F810BD0CB5002001900090334800689C
:1009B00040F480303149086000BF3048006800F4DE
:1009C000003000900198401C0190009818B90198DF
:1009D000B0F5A06FF1D12948006800F4003010B1E3
:1009E0000120009001E0002000900098012843D1F0
:1009F0002348006840F0100021490860084600685C
:100A000020F0030008600846006840F0020008601B
:100A10001A484068194948600846406848600846D6
:100A2000406840F4806048600846406820F47C10CC
:100A300048600846406840F4E8104860084600688E
:100A400040F08070086000BF0C48006800F0007043
:100A50000028F9D00948406820F0030007494860A1
:100A60000846406840F00200486000BF0348406804
:100A700000F00C000828F9D10CBD00000010024065
:100A80000020024010B54FF480710848FFF7DEFCEB
:100A90004FF400710548FFF7D9FC10210448FFF717
:100AA000D5FC20210148FFF7D1FC10BD000C01400E
:100AB000000801407047000010B51348006840F07E
:100AC00001001149086008464068104908400E4975
:100AD0004860084600680E4908400B49086008460F
:100AE000006820F4802008600846406820F4FE007A
:100AF00048604FF41F008860FFF750FF4FF0006020
:100B00000449086010BD0000001002400000FFF81A
:100B1000FFFFF6FE08ED00E010B50121880700F0A8
:100B200029F801280ED102210748FFF786FC012889
:100B300004D106480088401C044908800121880728
:100B400000F009F810BD000000080140140000206A
:100B5000CA4302827047CA430282704721B10288A9
:100B600042F00102028004E002884FF6FE731A4050
:100B70000280704730B50246002000230024158A09
:100B800005EA0103958905EA010413B10CB10120BE
:100B900000E0002030BD1AB183890B43838102E05D
:100BA00083898B438381704701894FF6F872114026
:100BB0000181704770B5002400220023058C4FF698
:100BC000FE7635400584028C8388048B4FF68F7542
:100BD0002C40B51E2C400D882C43751E2A400D89D3
:100BE0002A434D882A43144DA8420BD0134DA842E6
:100BF00008D0134DA84205D0124DA84202D0124D84
:100C0000A84213D14FF6F7752A404D892A434FF673
:100C1000FB752A408D882A434FF6FF652B404FF61F
:100C2000FF552B408D892B43CD892B438380048333
:100C3000CD888586028470BD002C014000340140BF
:100C400000400140004401400048014070B50024CC
:100C500000220023058C4FF6EF7635400584028C88
:100C60008388048B48F6FF752C404FF6FF452C40D7
:100C70000D884FF6FF7606EA05252C434FF6DF7503
:100C80002A400D8906EA05152A434D8806EA05150E
:100C90002A43154DA84202D0144DA8421DD14FF64B
:100CA0007F752A404D894FF6FF7606EA05152A43DF
:100CB0004FF6BF752A408D8806EA05152A434FF680
:100CC000FF352B404FF2FF752B408D8906EA8505D5
:100CD0002B43CD8906EA85052B4383800483CD8889
:100CE0000587028470BD0000002C014000340140E3
:100CF0000021018041808180C18001814181818109
:100D0000C181704781867047018770470022028841
:100D10001D4B98420ED01D4B98420BD0B0F1804F26
:100D200008D01B4B984205D01A4B984202D01A4B60
:100D3000984204D14FF68F731A404B881A43174BD1
:100D4000984207D0164B984204D04FF6FF431A4002
:100D5000CB881A4302808B8883850B8803850A4BD6
:100D600098420BD0094B984208D00E4B984205D0C0
:100D70000D4B984202D00D4B984201D10B7A03865D
:100D80000123838270470000002C014000340140A1
:100D90000004004000080040000C0040001000402B
:100DA0000014004000400140004401400048014060
:100DB0001FB500201E49088001210846FFF742FDAB
:100DC0004FF08040FFF7F0FE0020ADF80A00ADF8CC
:100DD000060041F61F40ADF808000020ADF8040001
:100DE0008DF80C0001A94FF08040FFF78FFF012123
:100DF0008807FFF7ADFE012211469007FFF7CBFEF3
:100E00004FF4A060FFF700FC1C208DF800000120CB
:100E10008DF8030002208DF8010001208DF80200FA
:100E20006846FFF7B9FB01218807FFF797FE1FBD52
:100E30001400002070B505460C462846FFF7ECFC70
:100E40002046FFF7F3FC4FF480710848FFF7FEFAE5
:100E50004FF400710548FFF7FBFA10210448FFF733
:100E6000F5FA20210148FFF7F3FA70BD000C0140AC
:100E70000008014070B505460C462846FFF7CCFC3B
:100E80002046FFF7D3FC4FF480710848FFF7E0FAE3
:100E90004FF400710548FFF7D9FA10210448FFF715
:100EA000D7FA20210148FFF7D1FA70BD000C0140AC
:100EB0000008014000BFFEE7FFF740FCFFF702FD1E
:100EC000FFF7F2FAFFF7DEFD0A48008800F020FC89
:100ED0000446FFF745FD0848008800F019FC044669
:100EE000FFF7D2FC40F6B830FFF7CFF901E0FFF78B
:100EF00095FBFCE70C0000200E00002010B526E05A
:100F0000154800885A280FDD13480088401E1249F2
:100F100008800846008800F0FBFB0446FFF720FD30
:100F20000A20FFF7B2F912E00B4800885A280EDABF
:100F300009480088401C084908800846008800F0DD
:100F4000E7FB0446FFF70CFD0A20FFF79EF9024875
:100F500000885A28D4D110BD0C0000202DE9C041D2
:100F600030B4DFF8A0C23CEA111418BF3CEA1314F5
:100F700000F0EC8081EA03051CEA111444EAD57400
:100F800018BF1CEA131500F0C780A4EB05044FF04E
:100F9000004545EAC12145EAC32341EA505143EAED
:100FA000525304F17F74994204F500344FEAC02093
:100FB0004FEAC22208BF904200F09C804FEA1365BE
:100FC0000FF24016765D4FEA134506FB05F7C7F1B1
:100FD000807706FB07F74FEAD737A7FB036876420F
:100FE000C8F58038A7FB06CE38BFA8F1010807FB7B
:100FF00008E64FF0000EA6FB028CE6FB03CEDCF108
:10100000000CCEF1004E38BFAEF1010EA6FB0C581D
:101010004FF000074FF00005E6FB0E87A1FB08C666
:10102000A0FB07CE16EB0E0645F10005E1FB0765B8
:1010300015F1E04E7EBFA4F580345FEA46066D41AF
:1010400016F1800745F100054FEA17274FEA0666BB
:1010500047EA0567A6F1DE46B6F1805F4FEA15253F
:101060001FD9384624F0010C05EBC471BCF1FE6FAA
:1010700001EB0C1102D8F0BCBDE8008124425CBF3A
:1010800001F5801E9EEAC47F02D4F0BCBDE8008159
:10109000244238D4F0BCA1F1C041BDE8004100F0C9
:1010A000EDB94FEAD22242EA43524FEAD323A7FBDB
:1010B00002864FEAD02040EA415007FB03661EEA51
:1010C0000E0F4FEAD12105FB026658BFA6EB005672
:1010D000B6EB00564FEA520E4EEAC37E18EB0E0EE8
:1010E00056EB530EBDD518EB02085E417F1C55F13F
:1010F0000005B6E74FF480154FF000074FF00006EB
:101100004FF00008ADE7F0BC4FF0000001F1C04126
:1011100001F00041BDE8008111EA0C1F0CEA131533
:1011200000D00CE013EA0C1F00F025804FF0000007
:10113000F0BC81EA030101F00041BDE80081F0BC90
:10114000BDE8004181EA030100F098B9F0BCBDE8B8
:10115000004170B500F044F9097EFC3E00F007B88C
:1011600081EA03014FF0000001F00041704781EA7D
:10117000030100F083B9F0BCBDE800414FF000006E
:1011800021497047FFFDFBF9F7F5F4F2F0EEEDEBC6
:10119000E9E8E6E4E3E1E0DEDDDBDAD8D7D5D4D375
:1011A000D1D0CFCDCCCBCAC8C7C6C5C4C2C1C0BFC1
:1011B000BEBDBCBBBAB9B8B7B6B5B4B3B2B1B0AFC7
:1011C000AEADACABAAA9A8A8A7A6A5A4A3A3A2A1AB
:1011D000A09F9F9E9D9C9C9B9A9999989797969566
:1011E00095949393929191908F8F8E8E8D8C8C8B02
:1011F0008B8A89898888878786858584848383828A
:10120000828181800000FF070000F87F4FEA1153C0
:10121000A3F58063D3F11E03A8BFD3F1200C08DB34
:101220004FF0004242EAC12252EA505232FA03F031
:10123000704709420BD4102BC4BF0020704703F540
:10124000787CBCF1FF3F05D04FF0FF3070474FF086
:101250000000704770B500F0C3F800BF49922480C9
:1012600000207047F0E7B0FA80F310FA03F10AD0DB
:10127000C3F11D0303F580634FEA41504FEA035267
:1012800002EBD12170474FF000007047DFF848C1F2
:1012900070B51CEA111E1EBF1CEA13159EEA0C0F46
:1012A00095EA0C0F00F06F8081EA030423EA4C13E7
:1012B0004EEAD47E21EA4C1141F4801143F48013AC
:1012C000AE44A1FB024CA0FB0365AEF17F7E361954
:1012D00055EB0C05A1FB034C4CF10003A0FB021CD9
:1012E00016EB0C06654153F10003094218BF46F0A6
:1012F000010613F4007F0BD14FEA03314FEA0530AA
:10130000340341EA155140EA16506FF003020AE037
:101310004FEAC3214FEAC520F40241EA555140EAA1
:1013200056506FF0020202EB2E4201EB025585EAA5
:10133000CE710AD05FEA440C18BF24F0004450F18B
:10134000000041F1000120EAD47040F2FE7C6245C9
:1013500000D270BDA84214BF4FF080444FF040440B
:10136000002E08BF0024BEF1806FA8BFA1F1C041CC
:10137000BDE8704080F282804FF0000001F1C04172
:1013800001F0004170479EEA0C0F0CEA131518BFDC
:1013900095EA0C0F06D04FF0000081EA030E0EF024
:1013A000004170BD00F01CF88900013E00F007B854
:1013B00000F009B84FEA430C5FEA5C5C08D081EAB0
:1013C000030100F05BB84FEA410C5FEA5C5CF6D1C8
:1013D0004FF00000014970470000FF070000F87F50
:1013E0000EF1020E2EF0030E5EF8046B364205D4A9
:1013F000012A43EB030515F5001F12D8012841EB24
:10140000010C1CF5001F0CD80ED14FEAD17C15F54C
:10141000001F0CEB4C0C0CF1020C08BF4CEBD37C06
:1014200004E04FF0080C01E04FEAD37C0CEB4C05D4
:1014300026FA05F606F00706B6F1040C06D20EEB06
:10144000860CBDE870404CF0010C6047DFE80CF002
:10145000090B02024FF000414FF00000A1F50021FE
:1014600070BD19461046012851EB010418BFD4F590
:10147000001484BF002001F0004170BD0808A0F5F1
:1014800000114FEA3101704790EA010F48BF81F027
:10149000004100F12482421A3CBF801A89184FEAA9
:1014A000D0524FF07F4C1CEA410FA2EBD15318BF32
:1014B0009CEA026F00F03B804FF0004C4CEA0020A9
:1014C0004CEA012121FA03FC10EB0C0C1ED202F1B4
:1014D000FF325FEA1C2040EBC25038BF70471CF05F
:1014E0007F0F4FEA400C18BFBCF17F4F38BF7047E9
:1014F000C3F12003994008BF20F00100BCF17F4FE9
:1015000038BF7047A0F1C04000F0DDB94FEA3C00A1
:10151000000A40EBC25028BF1CF0FF0F4FEA400CFE
:10152000E6D018BFBCF17F4F38BF7047EAE79CEAAE
:10153000026F05D010EA5C0F08BF00F00040704752
:1015400010B500F07AF900BF64FBBE3E4FF47F0C8B
:101550001CEAD0121EBF1CEAD11392EA0C0F93EAC8
:101560000C0F00F0858090EA010F48BF42F48072B2
:1015700040F4000C41F400002CF07F4120F07F404B
:1015800000B58142A2EB03020FF2081CACEB504EF7
:10159000C0F100009EF800E04FEA4E0E00FB0EFC8A
:1015A00038BF49004FEA2C1C02F5FA020CFB0EF37F
:1015B0004FEACE1E4FEA112C4FEAC1210EEB635EBB
:1015C00042EB22420EFB0CFC4FEA1C5300FB0311C2
:1015D0004FEA112C4FEA01310EFB0CFC4FEADC4CB8
:1015E00000FB0C11C14228BF09184CEB03335DF816
:1015F00004EB10EB410143EBC250B2F57C0F38BF56
:10160000704729D512F0F00F1CBF00F1C04000F068
:1016100000407047008182838485868788898B8C0F
:101620008D8E8F919293959697999A9C9D9FA0A24B
:10163000A3A5A7A8AAACAEB0B2B3B5B7B9BCBEC09B
:10164000C2C5C7C9CCCED1D4D7D9DCDFE2E6E9EC3C
:10165000F0F3F7FAFE0000004FEA400C0CF1807C3A
:10166000BCF17E4F28BF7047B0F1C04000F02BB9ED
:1016700090EA010F0CEAD11348BF42F48072624530
:1016800038BF634507D213F47F0F16D080EA0100FC
:1016900000F00040704710B500F0CFF8097EFC3E26
:1016A00000F005B880EA010000F00040704780EAD1
:1016B000010000F0004000F006B912F47F0F04BFF3
:1016C0000248704780EA010000F0FDB80000C07FCA
:1016D000C10DD1F19E0206DB4FEA002343F0004327
:1016E00023FA02F07047004207D54FEA4001B1F1FA
:1016F000FE4F02D24FF00000704710B500F09DF889
:1017000049922480002070476FEA20007047000053
:10171000B0FA80F310FA03F2C3F19D030AD0D905A1
:1017200001EB1220530638BF704700F1010008BFDB
:1017300020F00100704700004FF47F0C1CEAD0122B
:101740001EBF1CEAD11392EA0C0F93EA0C0F00F0B3
:10175000478090EA010F48BF42F480724FF0004C7E
:101760004CEA00204CEA012102EB0302A0FB01132A
:10177000A2F50002002918BF43F001035B0028BF57
:101780004FEA330342EB22425FEA132C4CEBC25088
:101790002EBFBCEB436FB2F57C0F70474FEA036C72
:1017A000BCF1004F08BF20F00100B2F57C0F38BF3C
:1017B00070470BD582F0FF0212F5803FC8BF70471B
:1017C00000F1C040D8BF00F00040704700F5000CA9
:1017D0005FEA4C0C48BF7047B0F1C04000F073B8EE
:1017E00090EA010F0CEAD11348BF42F480726245BF
:1017F00038BF634504D280EA010000F00040704722
:1018000010B500F01AF800BF8900013E00F007B8DB
:1018100000F009B85FEA410C5FEA1C6C08D080EA6E
:10182000010000F050B85FEA400C5FEA1C6CF6D192
:101830004FF00040A0F5800070470EF1020E2EF030
:10184000030E5EF8044B244204D44FEA4102B2F185
:101850007F4F11D84FEA4003B3F17F4F0CD80ED120
:101860004FEAD07CB2F17F4F0CEB4C0C0CF1020C28
:1018700008BF4CEBD17C04E04FF0080C01E04FEACC
:10188000D17C0CEB4C0324FA03F404F00704B4F10C
:10189000040C06D20EEB840CBDE810404CF0010C99
:1018A0006047DFE80CF0070802024FF00040A0F5A7
:1018B000800010BD0846420018BFD2F1807288BF78
:1018C00000F0004010BDFF2141EAD050C005704734
:1018D00090EA010F48BF81F000413FF5DCAD421AAC
:1018E00004D882F00042A0EB020011444FEAD0522B
:1018F0004FF07F4C1CEA410FA2EBD15318BF9CEA7A
:10190000026F4AD04FF0004C4CEA00204CEA012113
:1019100021FA03FCB0EB0C0C0FD412F0FE0F36D002
:101920005FEA4C001DD5001240EBC25038BF704733
:101930001CF03F0F18BF70470BE0A2F101025FEAF5
:101940001C2040EBC25038BF70471CF07F0F18BFFF
:101950007047C3F12003994014BF401E20F00100DE
:10196000704780084FEA122308BF7047B0FA80FC26
:10197000A2EB0C02CCF1280C60FA0CF093EA122FC7
:1019800004BF00EBC25070474FEAC3707047130AA0
:101990005FEADC1008BF7047F6E79CEA026F04D0EC
:1019A00010EA5C0F08BF0020704710B5FFF745FF35
:1019B00040DFF63E81F0004070470000DC1900086F
:1019C000000000201800000028010008F419000899
:1019D000180000206006000044010008000000001C
:1019E00000000000000000005A005F003C003C00C6
:0419F00000000000F3
:04000005080000ED02
:00000001FF
